{
  "_format": "hh-sol-artifact-1",
  "contractName": "SpaceTaxi",
  "sourceName": "contracts/SpaceTaxi.sol",
  "abi": [
    {
      "inputs": [
        {
          "internalType": "string",
          "name": "uri",
          "type": "string"
        },
        {
          "internalType": "bytes32",
          "name": "merkleroot",
          "type": "bytes32"
        },
        {
          "internalType": "address",
          "name": "_proxyRegistryAddress",
          "type": "address"
        }
      ],
      "stateMutability": "nonpayable",
      "type": "constructor"
    },
    {
      "anonymous": false,
      "inputs": [
        {
          "indexed": true,
          "internalType": "address",
          "name": "owner",
          "type": "address"
        },
        {
          "indexed": true,
          "internalType": "address",
          "name": "approved",
          "type": "address"
        },
        {
          "indexed": true,
          "internalType": "uint256",
          "name": "tokenId",
          "type": "uint256"
        }
      ],
      "name": "Approval",
      "type": "event"
    },
    {
      "anonymous": false,
      "inputs": [
        {
          "indexed": true,
          "internalType": "address",
          "name": "owner",
          "type": "address"
        },
        {
          "indexed": true,
          "internalType": "address",
          "name": "operator",
          "type": "address"
        },
        {
          "indexed": false,
          "internalType": "bool",
          "name": "approved",
          "type": "bool"
        }
      ],
      "name": "ApprovalForAll",
      "type": "event"
    },
    {
      "anonymous": false,
      "inputs": [
        {
          "indexed": true,
          "internalType": "contract IERC20",
          "name": "token",
          "type": "address"
        },
        {
          "indexed": false,
          "internalType": "address",
          "name": "to",
          "type": "address"
        },
        {
          "indexed": false,
          "internalType": "uint256",
          "name": "amount",
          "type": "uint256"
        }
      ],
      "name": "ERC20PaymentReleased",
      "type": "event"
    },
    {
      "anonymous": false,
      "inputs": [
        {
          "indexed": true,
          "internalType": "address",
          "name": "previousOwner",
          "type": "address"
        },
        {
          "indexed": true,
          "internalType": "address",
          "name": "newOwner",
          "type": "address"
        }
      ],
      "name": "OwnershipTransferred",
      "type": "event"
    },
    {
      "anonymous": false,
      "inputs": [
        {
          "indexed": false,
          "internalType": "address",
          "name": "account",
          "type": "address"
        },
        {
          "indexed": false,
          "internalType": "uint256",
          "name": "shares",
          "type": "uint256"
        }
      ],
      "name": "PayeeAdded",
      "type": "event"
    },
    {
      "anonymous": false,
      "inputs": [
        {
          "indexed": false,
          "internalType": "address",
          "name": "from",
          "type": "address"
        },
        {
          "indexed": false,
          "internalType": "uint256",
          "name": "amount",
          "type": "uint256"
        }
      ],
      "name": "PaymentReceived",
      "type": "event"
    },
    {
      "anonymous": false,
      "inputs": [
        {
          "indexed": false,
          "internalType": "address",
          "name": "to",
          "type": "address"
        },
        {
          "indexed": false,
          "internalType": "uint256",
          "name": "amount",
          "type": "uint256"
        }
      ],
      "name": "PaymentReleased",
      "type": "event"
    },
    {
      "anonymous": false,
      "inputs": [
        {
          "indexed": true,
          "internalType": "address",
          "name": "from",
          "type": "address"
        },
        {
          "indexed": true,
          "internalType": "address",
          "name": "to",
          "type": "address"
        },
        {
          "indexed": true,
          "internalType": "uint256",
          "name": "tokenId",
          "type": "uint256"
        }
      ],
      "name": "Transfer",
      "type": "event"
    },
    {
      "inputs": [
        {
          "internalType": "address",
          "name": "",
          "type": "address"
        }
      ],
      "name": "_presaleClaimed",
      "outputs": [
        {
          "internalType": "uint256",
          "name": "",
          "type": "uint256"
        }
      ],
      "stateMutability": "view",
      "type": "function"
    },
    {
      "inputs": [],
      "name": "_price",
      "outputs": [
        {
          "internalType": "uint256",
          "name": "",
          "type": "uint256"
        }
      ],
      "stateMutability": "view",
      "type": "function"
    },
    {
      "inputs": [
        {
          "internalType": "address",
          "name": "to",
          "type": "address"
        },
        {
          "internalType": "uint256",
          "name": "tokenId",
          "type": "uint256"
        }
      ],
      "name": "approve",
      "outputs": [],
      "stateMutability": "nonpayable",
      "type": "function"
    },
    {
      "inputs": [
        {
          "internalType": "address",
          "name": "owner",
          "type": "address"
        }
      ],
      "name": "balanceOf",
      "outputs": [
        {
          "internalType": "uint256",
          "name": "",
          "type": "uint256"
        }
      ],
      "stateMutability": "view",
      "type": "function"
    },
    {
      "inputs": [],
      "name": "baseExtension",
      "outputs": [
        {
          "internalType": "string",
          "name": "",
          "type": "string"
        }
      ],
      "stateMutability": "view",
      "type": "function"
    },
    {
      "inputs": [],
      "name": "baseURI",
      "outputs": [
        {
          "internalType": "string",
          "name": "",
          "type": "string"
        }
      ],
      "stateMutability": "view",
      "type": "function"
    },
    {
      "inputs": [
        {
          "internalType": "uint256",
          "name": "tokenId",
          "type": "uint256"
        }
      ],
      "name": "getApproved",
      "outputs": [
        {
          "internalType": "address",
          "name": "",
          "type": "address"
        }
      ],
      "stateMutability": "view",
      "type": "function"
    },
    {
      "inputs": [
        {
          "internalType": "address",
          "name": "owner",
          "type": "address"
        },
        {
          "internalType": "address",
          "name": "operator",
          "type": "address"
        }
      ],
      "name": "isApprovedForAll",
      "outputs": [
        {
          "internalType": "bool",
          "name": "",
          "type": "bool"
        }
      ],
      "stateMutability": "view",
      "type": "function"
    },
    {
      "inputs": [],
      "name": "maxSupply",
      "outputs": [
        {
          "internalType": "uint256",
          "name": "",
          "type": "uint256"
        }
      ],
      "stateMutability": "view",
      "type": "function"
    },
    {
      "inputs": [],
      "name": "name",
      "outputs": [
        {
          "internalType": "string",
          "name": "",
          "type": "string"
        }
      ],
      "stateMutability": "view",
      "type": "function"
    },
    {
      "inputs": [],
      "name": "notRevealedUri",
      "outputs": [
        {
          "internalType": "string",
          "name": "",
          "type": "string"
        }
      ],
      "stateMutability": "view",
      "type": "function"
    },
    {
      "inputs": [],
      "name": "owner",
      "outputs": [
        {
          "internalType": "address",
          "name": "",
          "type": "address"
        }
      ],
      "stateMutability": "view",
      "type": "function"
    },
    {
      "inputs": [
        {
          "internalType": "uint256",
          "name": "tokenId",
          "type": "uint256"
        }
      ],
      "name": "ownerOf",
      "outputs": [
        {
          "internalType": "address",
          "name": "",
          "type": "address"
        }
      ],
      "stateMutability": "view",
      "type": "function"
    },
    {
      "inputs": [],
      "name": "paused",
      "outputs": [
        {
          "internalType": "bool",
          "name": "",
          "type": "bool"
        }
      ],
      "stateMutability": "view",
      "type": "function"
    },
    {
      "inputs": [
        {
          "internalType": "uint256",
          "name": "index",
          "type": "uint256"
        }
      ],
      "name": "payee",
      "outputs": [
        {
          "internalType": "address",
          "name": "",
          "type": "address"
        }
      ],
      "stateMutability": "view",
      "type": "function"
    },
    {
      "inputs": [],
      "name": "presaleM",
      "outputs": [
        {
          "internalType": "bool",
          "name": "",
          "type": "bool"
        }
      ],
      "stateMutability": "view",
      "type": "function"
    },
    {
      "inputs": [
        {
          "internalType": "address",
          "name": "account",
          "type": "address"
        },
        {
          "internalType": "uint256",
          "name": "_amount",
          "type": "uint256"
        },
        {
          "internalType": "bytes32[]",
          "name": "_proof",
          "type": "bytes32[]"
        }
      ],
      "name": "presaleMint",
      "outputs": [],
      "stateMutability": "payable",
      "type": "function"
    },
    {
      "inputs": [],
      "name": "publicM",
      "outputs": [
        {
          "internalType": "bool",
          "name": "",
          "type": "bool"
        }
      ],
      "stateMutability": "view",
      "type": "function"
    },
    {
      "inputs": [
        {
          "internalType": "uint256",
          "name": "_amount",
          "type": "uint256"
        }
      ],
      "name": "publicSaleMint",
      "outputs": [],
      "stateMutability": "payable",
      "type": "function"
    },
    {
      "inputs": [
        {
          "internalType": "address payable",
          "name": "account",
          "type": "address"
        }
      ],
      "name": "release",
      "outputs": [],
      "stateMutability": "nonpayable",
      "type": "function"
    },
    {
      "inputs": [
        {
          "internalType": "contract IERC20",
          "name": "token",
          "type": "address"
        },
        {
          "internalType": "address",
          "name": "account",
          "type": "address"
        }
      ],
      "name": "release",
      "outputs": [],
      "stateMutability": "nonpayable",
      "type": "function"
    },
    {
      "inputs": [
        {
          "internalType": "contract IERC20",
          "name": "token",
          "type": "address"
        },
        {
          "internalType": "address",
          "name": "account",
          "type": "address"
        }
      ],
      "name": "released",
      "outputs": [
        {
          "internalType": "uint256",
          "name": "",
          "type": "uint256"
        }
      ],
      "stateMutability": "view",
      "type": "function"
    },
    {
      "inputs": [
        {
          "internalType": "address",
          "name": "account",
          "type": "address"
        }
      ],
      "name": "released",
      "outputs": [
        {
          "internalType": "uint256",
          "name": "",
          "type": "uint256"
        }
      ],
      "stateMutability": "view",
      "type": "function"
    },
    {
      "inputs": [],
      "name": "renounceOwnership",
      "outputs": [],
      "stateMutability": "nonpayable",
      "type": "function"
    },
    {
      "inputs": [],
      "name": "reveal",
      "outputs": [],
      "stateMutability": "nonpayable",
      "type": "function"
    },
    {
      "inputs": [],
      "name": "revealed",
      "outputs": [
        {
          "internalType": "bool",
          "name": "",
          "type": "bool"
        }
      ],
      "stateMutability": "view",
      "type": "function"
    },
    {
      "inputs": [],
      "name": "root",
      "outputs": [
        {
          "internalType": "bytes32",
          "name": "",
          "type": "bytes32"
        }
      ],
      "stateMutability": "view",
      "type": "function"
    },
    {
      "inputs": [
        {
          "internalType": "address",
          "name": "from",
          "type": "address"
        },
        {
          "internalType": "address",
          "name": "to",
          "type": "address"
        },
        {
          "internalType": "uint256",
          "name": "tokenId",
          "type": "uint256"
        }
      ],
      "name": "safeTransferFrom",
      "outputs": [],
      "stateMutability": "nonpayable",
      "type": "function"
    },
    {
      "inputs": [
        {
          "internalType": "address",
          "name": "from",
          "type": "address"
        },
        {
          "internalType": "address",
          "name": "to",
          "type": "address"
        },
        {
          "internalType": "uint256",
          "name": "tokenId",
          "type": "uint256"
        },
        {
          "internalType": "bytes",
          "name": "_data",
          "type": "bytes"
        }
      ],
      "name": "safeTransferFrom",
      "outputs": [],
      "stateMutability": "nonpayable",
      "type": "function"
    },
    {
      "inputs": [
        {
          "internalType": "address",
          "name": "operator",
          "type": "address"
        },
        {
          "internalType": "bool",
          "name": "approved",
          "type": "bool"
        }
      ],
      "name": "setApprovalForAll",
      "outputs": [],
      "stateMutability": "nonpayable",
      "type": "function"
    },
    {
      "inputs": [
        {
          "internalType": "string",
          "name": "_newBaseExtension",
          "type": "string"
        }
      ],
      "name": "setBaseExtension",
      "outputs": [],
      "stateMutability": "nonpayable",
      "type": "function"
    },
    {
      "inputs": [
        {
          "internalType": "string",
          "name": "_tokenBaseURI",
          "type": "string"
        }
      ],
      "name": "setBaseURI",
      "outputs": [],
      "stateMutability": "nonpayable",
      "type": "function"
    },
    {
      "inputs": [
        {
          "internalType": "bytes32",
          "name": "merkleroot",
          "type": "bytes32"
        }
      ],
      "name": "setMerkleRoot",
      "outputs": [],
      "stateMutability": "nonpayable",
      "type": "function"
    },
    {
      "inputs": [
        {
          "internalType": "string",
          "name": "_notRevealedURI",
          "type": "string"
        }
      ],
      "name": "setNotRevealedURI",
      "outputs": [],
      "stateMutability": "nonpayable",
      "type": "function"
    },
    {
      "inputs": [
        {
          "internalType": "uint256",
          "name": "_SetPrice",
          "type": "uint256"
        }
      ],
      "name": "setPrice",
      "outputs": [],
      "stateMutability": "nonpayable",
      "type": "function"
    },
    {
      "inputs": [
        {
          "internalType": "address",
          "name": "account",
          "type": "address"
        }
      ],
      "name": "shares",
      "outputs": [
        {
          "internalType": "uint256",
          "name": "",
          "type": "uint256"
        }
      ],
      "stateMutability": "view",
      "type": "function"
    },
    {
      "inputs": [
        {
          "internalType": "bytes4",
          "name": "interfaceId",
          "type": "bytes4"
        }
      ],
      "name": "supportsInterface",
      "outputs": [
        {
          "internalType": "bool",
          "name": "",
          "type": "bool"
        }
      ],
      "stateMutability": "view",
      "type": "function"
    },
    {
      "inputs": [],
      "name": "symbol",
      "outputs": [
        {
          "internalType": "string",
          "name": "",
          "type": "string"
        }
      ],
      "stateMutability": "view",
      "type": "function"
    },
    {
      "inputs": [],
      "name": "togglePause",
      "outputs": [],
      "stateMutability": "nonpayable",
      "type": "function"
    },
    {
      "inputs": [],
      "name": "togglePresale",
      "outputs": [],
      "stateMutability": "nonpayable",
      "type": "function"
    },
    {
      "inputs": [],
      "name": "togglePublicSale",
      "outputs": [],
      "stateMutability": "nonpayable",
      "type": "function"
    },
    {
      "inputs": [
        {
          "internalType": "uint256",
          "name": "tokenId",
          "type": "uint256"
        }
      ],
      "name": "tokenURI",
      "outputs": [
        {
          "internalType": "string",
          "name": "",
          "type": "string"
        }
      ],
      "stateMutability": "view",
      "type": "function"
    },
    {
      "inputs": [
        {
          "internalType": "contract IERC20",
          "name": "token",
          "type": "address"
        }
      ],
      "name": "totalReleased",
      "outputs": [
        {
          "internalType": "uint256",
          "name": "",
          "type": "uint256"
        }
      ],
      "stateMutability": "view",
      "type": "function"
    },
    {
      "inputs": [],
      "name": "totalReleased",
      "outputs": [
        {
          "internalType": "uint256",
          "name": "",
          "type": "uint256"
        }
      ],
      "stateMutability": "view",
      "type": "function"
    },
    {
      "inputs": [],
      "name": "totalShares",
      "outputs": [
        {
          "internalType": "uint256",
          "name": "",
          "type": "uint256"
        }
      ],
      "stateMutability": "view",
      "type": "function"
    },
    {
      "inputs": [],
      "name": "totalSupply",
      "outputs": [
        {
          "internalType": "uint256",
          "name": "",
          "type": "uint256"
        }
      ],
      "stateMutability": "view",
      "type": "function"
    },
    {
      "inputs": [
        {
          "internalType": "address",
          "name": "from",
          "type": "address"
        },
        {
          "internalType": "address",
          "name": "to",
          "type": "address"
        },
        {
          "internalType": "uint256",
          "name": "tokenId",
          "type": "uint256"
        }
      ],
      "name": "transferFrom",
      "outputs": [],
      "stateMutability": "nonpayable",
      "type": "function"
    },
    {
      "inputs": [
        {
          "internalType": "address",
          "name": "newOwner",
          "type": "address"
        }
      ],
      "name": "transferOwnership",
      "outputs": [],
      "stateMutability": "nonpayable",
      "type": "function"
    },
    {
      "stateMutability": "payable",
      "type": "receive"
    }
  ],
  "bytecode": "0x612710601155610100604052604160808181529062003ac460a039805162000030916013916020909101906200067c565b5060408051808201909152600580825264173539b7b760d91b60209092019182526200005f916014916200067c565b506015805463ffffffff1916905560326016819055680ad78ebc5ac6200000601855604080518082019091528181526020810191909152620000a690601a9060026200070b565b5060408051808201909152735d50a5a2858f3c2f725e6d4542b4b19b1618a1c5815273822328a17847a0a3c637d0714fa3b30eb97b288c6020820152620000f290601b9060026200074e565b503480156200010057600080fd5b5060405162003b0538038062003b058339810160408190526200012391620007f0565b601b8054806020026020016040519081016040528092919081815260200182805480156200017b57602002820191906000526020600020905b81546001600160a01b031681526001909101906020018083116200015c575b5050505050601a805480602002602001604051908101604052809291908181526020018280548015620001ce57602002820191906000526020600020905b815481526020019060010190808311620001b9575b5050604080518082018252600981526853706163655461786960b81b602080830191825283518085019094526005845264537061636560d81b908401528151919550919350620002239250600091906200067c565b508051620002399060019060208401906200067c565b5050506200025662000250620003c360201b60201c565b620003c7565b60016007558051825114620002cd5760405162461bcd60e51b815260206004820152603260248201527f5061796d656e7453706c69747465723a2070617965657320616e6420736861726044820152710cae640d8cadccee8d040dad2e6dac2e8c6d60731b60648201526084015b60405180910390fd5b6000825111620003205760405162461bcd60e51b815260206004820152601a60248201527f5061796d656e7453706c69747465723a206e6f207061796565730000000000006044820152606401620002c4565b60005b82518110156200038c5762000377838281518110620003465762000346620008eb565b6020026020010151838381518110620003635762000363620008eb565b60200260200101516200041960201b60201c565b80620003838162000917565b91505062000323565b505050600f829055601080546001600160a01b0319166001600160a01b038316179055620003ba8362000607565b5050506200098d565b3390565b600680546001600160a01b038381166001600160a01b0319831681179093556040519116919082907f8be0079c531659141344cd1fd0a4f28419497f9722a3daafe3b4186f6b6457e090600090a35050565b6001600160a01b038216620004865760405162461bcd60e51b815260206004820152602c60248201527f5061796d656e7453706c69747465723a206163636f756e74206973207468652060448201526b7a65726f206164647265737360a01b6064820152608401620002c4565b60008111620004d85760405162461bcd60e51b815260206004820152601d60248201527f5061796d656e7453706c69747465723a207368617265732061726520300000006044820152606401620002c4565b6001600160a01b0382166000908152600a602052604090205415620005545760405162461bcd60e51b815260206004820152602b60248201527f5061796d656e7453706c69747465723a206163636f756e7420616c726561647960448201526a206861732073686172657360a81b6064820152608401620002c4565b600c8054600181019091557fdf6966c971051c3d54ec59162606531493a51404a002842f56009d7e5cf4a8c70180546001600160a01b0319166001600160a01b0384169081179091556000908152600a60205260409020819055600854620005be90829062000935565b600855604080516001600160a01b0384168152602081018390527f40c340f65e17194d14ddddb073d3c9f888e3cb52b5aae0c6c7706b4fbc905fac910160405180910390a15050565b6006546001600160a01b03163314620006635760405162461bcd60e51b815260206004820181905260248201527f4f776e61626c653a2063616c6c6572206973206e6f7420746865206f776e65726044820152606401620002c4565b8051620006789060129060208401906200067c565b5050565b8280546200068a9062000950565b90600052602060002090601f016020900481019282620006ae5760008555620006f9565b82601f10620006c957805160ff1916838001178555620006f9565b82800160010185558215620006f9579182015b82811115620006f9578251825591602001919060010190620006dc565b5062000707929150620007a6565b5090565b828054828255906000526020600020908101928215620006f9579160200282015b82811115620006f9578251829060ff169055916020019190600101906200072c565b828054828255906000526020600020908101928215620006f9579160200282015b82811115620006f957825182546001600160a01b0319166001600160a01b039091161782556020909201916001909101906200076f565b5b80821115620007075760008155600101620007a7565b634e487b7160e01b600052604160045260246000fd5b80516001600160a01b0381168114620007eb57600080fd5b919050565b6000806000606084860312156200080657600080fd5b83516001600160401b03808211156200081e57600080fd5b818601915086601f8301126200083357600080fd5b815181811115620008485762000848620007bd565b604051601f8201601f19908116603f01168101908382118183101715620008735762000873620007bd565b816040528281526020935089848487010111156200089057600080fd5b600091505b82821015620008b4578482018401518183018501529083019062000895565b82821115620008c65760008484830101525b8097505050508086015193505050620008e260408501620007d3565b90509250925092565b634e487b7160e01b600052603260045260246000fd5b634e487b7160e01b600052601160045260246000fd5b60006000198214156200092e576200092e62000901565b5060010190565b600082198211156200094b576200094b62000901565b500190565b600181811c908216806200096557607f821691505b602082108114156200098757634e487b7160e01b600052602260045260246000fd5b50919050565b613127806200099d6000396000f3fe6080604052600436106102975760003560e01c80638cc4de191161015a578063c6682862116100c1578063e222c7f91161007a578063e222c7f914610835578063e33b7de31461084a578063e985e9c51461085f578063ebf0c7171461087f578063f2c4ce1e14610895578063f2fde38b146108b557600080fd5b8063c66828621461075e578063c87b56dd14610773578063ce7c2ac214610793578063d5abeb01146107c9578063d79779b2146107df578063da3ef23f1461081557600080fd5b8063a22cb46511610113578063a22cb465146106c0578063a45063c0146106e0578063a475b5dd14610701578063b3ab66b014610716578063b88d4fde14610729578063c4ae31681461074957600080fd5b80638cc4de19146105f75780638da5cb5b1461062457806391b7f5ed14610642578063954dc3e31461066257806395d89b41146106755780639852595c1461068a57600080fd5b8063406072a9116101fe5780636352211e116101b75780636352211e1461054d5780636c0360eb1461056d57806370a0823114610582578063715018a6146105a25780637cb64759146105b75780638b83209b146105d757600080fd5b8063406072a91461046e57806342842e0e146104b457806348b75044146104d457806351830227146104f457806355f804b3146105135780635c975abb1461053357600080fd5b806318160ddd1161025057806318160ddd146103cb57806319165587146103ee578063235b6ea11461040e57806323b872dd1461042457806334393743146104445780633a98ef391461045957600080fd5b806301ffc9a7146102e557806306fdde031461031a578063081812fc1461033c578063081c8c4414610374578063095ea7b3146103895780631798d58b146103ab57600080fd5b366102e0577f6ef95f06320e7a25a04a175ca677b7052bdd97131872c2192525a629f51be77033604080516001600160a01b0390921682523460208301520160405180910390a1005b600080fd5b3480156102f157600080fd5b506103056103003660046128a2565b6108d5565b60405190151581526020015b60405180910390f35b34801561032657600080fd5b5061032f610927565b6040516103119190612917565b34801561034857600080fd5b5061035c61035736600461292a565b6109b9565b6040516001600160a01b039091168152602001610311565b34801561038057600080fd5b5061032f610a53565b34801561039557600080fd5b506103a96103a4366004612958565b610ae1565b005b3480156103b757600080fd5b506015546103059062010000900460ff1681565b3480156103d757600080fd5b506103e0610bf7565b604051908152602001610311565b3480156103fa57600080fd5b506103a9610409366004612984565b610c07565b34801561041a57600080fd5b506103e060185481565b34801561043057600080fd5b506103a961043f3660046129a1565b610d35565b34801561045057600080fd5b506103a9610d66565b34801561046557600080fd5b506008546103e0565b34801561047a57600080fd5b506103e06104893660046129e2565b6001600160a01b039182166000908152600e6020908152604080832093909416825291909152205490565b3480156104c057600080fd5b506103a96104cf3660046129a1565b610daf565b3480156104e057600080fd5b506103a96104ef3660046129e2565b610dca565b34801561050057600080fd5b5060155461030590610100900460ff1681565b34801561051f57600080fd5b506103a961052e366004612aa7565b610fb2565b34801561053f57600080fd5b506015546103059060ff1681565b34801561055957600080fd5b5061035c61056836600461292a565b610ff3565b34801561057957600080fd5b5061032f61106a565b34801561058e57600080fd5b506103e061059d366004612984565b611077565b3480156105ae57600080fd5b506103a96110fe565b3480156105c357600080fd5b506103a96105d236600461292a565b611134565b3480156105e357600080fd5b5061035c6105f236600461292a565b611163565b34801561060357600080fd5b506103e0610612366004612984565b60176020526000908152604090205481565b34801561063057600080fd5b506006546001600160a01b031661035c565b34801561064e57600080fd5b506103a961065d36600461292a565b611193565b6103a9610670366004612af0565b6111c2565b34801561068157600080fd5b5061032f6114bd565b34801561069657600080fd5b506103e06106a5366004612984565b6001600160a01b03166000908152600b602052604090205490565b3480156106cc57600080fd5b506103a96106db366004612b8a565b6114cc565b3480156106ec57600080fd5b50601554610305906301000000900460ff1681565b34801561070d57600080fd5b506103a96114d7565b6103a961072436600461292a565b611512565b34801561073557600080fd5b506103a9610744366004612bb8565b6116e1565b34801561075557600080fd5b506103a9611719565b34801561076a57600080fd5b5061032f611757565b34801561077f57600080fd5b5061032f61078e36600461292a565b611764565b34801561079f57600080fd5b506103e06107ae366004612984565b6001600160a01b03166000908152600a602052604090205490565b3480156107d557600080fd5b506103e060115481565b3480156107eb57600080fd5b506103e06107fa366004612984565b6001600160a01b03166000908152600d602052604090205490565b34801561082157600080fd5b506103a9610830366004612aa7565b6118e3565b34801561084157600080fd5b506103a9611920565b34801561085657600080fd5b506009546103e0565b34801561086b57600080fd5b5061030561087a3660046129e2565b61196b565b34801561088b57600080fd5b506103e0600f5481565b3480156108a157600080fd5b506103a96108b0366004612aa7565b611a3b565b3480156108c157600080fd5b506103a96108d0366004612984565b611a78565b60006001600160e01b031982166380ac58cd60e01b148061090657506001600160e01b03198216635b5e139f60e01b145b8061092157506301ffc9a760e01b6001600160e01b03198316145b92915050565b60606000805461093690612c38565b80601f016020809104026020016040519081016040528092919081815260200182805461096290612c38565b80156109af5780601f10610984576101008083540402835291602001916109af565b820191906000526020600020905b81548152906001019060200180831161099257829003601f168201915b5050505050905090565b6000818152600260205260408120546001600160a01b0316610a375760405162461bcd60e51b815260206004820152602c60248201527f4552433732313a20617070726f76656420717565727920666f72206e6f6e657860448201526b34b9ba32b73a103a37b5b2b760a11b60648201526084015b60405180910390fd5b506000908152600460205260409020546001600160a01b031690565b60138054610a6090612c38565b80601f0160208091040260200160405190810160405280929190818152602001828054610a8c90612c38565b8015610ad95780601f10610aae57610100808354040283529160200191610ad9565b820191906000526020600020905b815481529060010190602001808311610abc57829003601f168201915b505050505081565b6000610aec82610ff3565b9050806001600160a01b0316836001600160a01b03161415610b5a5760405162461bcd60e51b815260206004820152602160248201527f4552433732313a20617070726f76616c20746f2063757272656e74206f776e656044820152603960f91b6064820152608401610a2e565b336001600160a01b0382161480610b765750610b76813361196b565b610be85760405162461bcd60e51b815260206004820152603860248201527f4552433732313a20617070726f76652063616c6c6572206973206e6f74206f7760448201527f6e6572206e6f7220617070726f76656420666f7220616c6c00000000000000006064820152608401610a2e565b610bf28383611b13565b505050565b6000610c0260195490565b905090565b6001600160a01b0381166000908152600a6020526040902054610c3c5760405162461bcd60e51b8152600401610a2e90612c73565b6000610c4760095490565b610c519047612ccf565b90506000610c7e8383610c79866001600160a01b03166000908152600b602052604090205490565b611b81565b905080610c9d5760405162461bcd60e51b8152600401610a2e90612ce7565b6001600160a01b0383166000908152600b602052604081208054839290610cc5908490612ccf565b925050819055508060096000828254610cde9190612ccf565b90915550610cee90508382611bbf565b604080516001600160a01b0385168152602081018390527fdf20fd1e76bc69d672e4814fafb2c449bba3a5369d8359adf9e05e6fde87b056910160405180910390a1505050565b610d3f3382611cd8565b610d5b5760405162461bcd60e51b8152600401610a2e90612d32565b610bf2838383611dae565b6006546001600160a01b03163314610d905760405162461bcd60e51b8152600401610a2e90612d83565b6015805462ff0000198116620100009182900460ff1615909102179055565b610bf2838383604051806020016040528060008152506116e1565b6001600160a01b0381166000908152600a6020526040902054610dff5760405162461bcd60e51b8152600401610a2e90612c73565b6001600160a01b0382166000908152600d60205260408120546040516370a0823160e01b81523060048201526001600160a01b038516906370a082319060240160206040518083038186803b158015610e5757600080fd5b505afa158015610e6b573d6000803e3d6000fd5b505050506040513d601f19601f82011682018060405250810190610e8f9190612db8565b610e999190612ccf565b90506000610ed28383610c7987876001600160a01b039182166000908152600e6020908152604080832093909416825291909152205490565b905080610ef15760405162461bcd60e51b8152600401610a2e90612ce7565b6001600160a01b038085166000908152600e6020908152604080832093871683529290529081208054839290610f28908490612ccf565b90915550506001600160a01b0384166000908152600d602052604081208054839290610f55908490612ccf565b90915550610f669050848483611f4a565b604080516001600160a01b038581168252602082018490528616917f3be5b7a71e84ed12875d241991c70855ac5817d847039e17a9d895c1ceb0f18a910160405180910390a250505050565b6006546001600160a01b03163314610fdc5760405162461bcd60e51b8152600401610a2e90612d83565b8051610fef9060129060208401906127f3565b5050565b6000818152600260205260408120546001600160a01b0316806109215760405162461bcd60e51b815260206004820152602960248201527f4552433732313a206f776e657220717565727920666f72206e6f6e657869737460448201526832b73a103a37b5b2b760b91b6064820152608401610a2e565b60128054610a6090612c38565b60006001600160a01b0382166110e25760405162461bcd60e51b815260206004820152602a60248201527f4552433732313a2062616c616e636520717565727920666f7220746865207a65604482015269726f206164647265737360b01b6064820152608401610a2e565b506001600160a01b031660009081526003602052604090205490565b6006546001600160a01b031633146111285760405162461bcd60e51b8152600401610a2e90612d83565b6111326000611f9c565b565b6006546001600160a01b0316331461115e5760405162461bcd60e51b8152600401610a2e90612d83565b600f55565b6000600c828154811061117857611178612dd1565b6000918252602090912001546001600160a01b031692915050565b6006546001600160a01b031633146111bd5760405162461bcd60e51b8152600401610a2e90612d83565b601855565b818161123982828080602002602001604051908101604052809392919081815260200183836020028082843760009201919091525050600f546040516bffffffffffffffffffffffff193360601b166020820152909250603401905060405160208183030381529060405280519060200120611fee565b151560011461125a5760405162461bcd60e51b8152600401610a2e90612de7565b3332146112795760405162461bcd60e51b8152600401610a2e90612de7565b336001600160a01b038716146112ca5760405162461bcd60e51b815260206004820152601660248201527514dc1858d955185e1a4e88139bdd08185b1b1bddd95960521b6044820152606401610a2e565b60155462010000900460ff166113225760405162461bcd60e51b815260206004820152601960248201527f5370616365546178693a2050726573616c65206973204f4646000000000000006044820152606401610a2e565b60155460ff16156113755760405162461bcd60e51b815260206004820152601d60248201527f5370616365546178693a20436f6e7472616374206973207061757365640000006044820152606401610a2e565b6016548511156113975760405162461bcd60e51b8152600401610a2e90612e13565b601654336000908152601760205260409020546113b5908790612ccf565b11156113d35760405162461bcd60e51b8152600401610a2e90612e13565b60006113de60195490565b6011549091506113ee8783612ccf565b111561143c5760405162461bcd60e51b815260206004820152601e60248201527f5370616365546178693a206d617820737570706c7920657863656564656400006044820152606401610a2e565b348660185461144b9190612e5b565b11156114695760405162461bcd60e51b8152600401610a2e90612e7a565b3360009081526017602052604081208054889290611488908490612ccf565b90915550600090505b868110156114b3576114a1612004565b806114ab81612ebb565b915050611491565b5050505050505050565b60606001805461093690612c38565b610fef338383612089565b6006546001600160a01b031633146115015760405162461bcd60e51b8152600401610a2e90612d83565b6015805461ff001916610100179055565b3332146115315760405162461bcd60e51b8152600401610a2e90612de7565b6015546301000000900460ff1661158a5760405162461bcd60e51b815260206004820152601c60248201527f5370616365546178693a205075626c696353616c65206973204f4646000000006044820152606401610a2e565b60155460ff16156115dd5760405162461bcd60e51b815260206004820152601d60248201527f5370616365546178693a20436f6e7472616374206973207061757365640000006044820152606401610a2e565b600081116116265760405162461bcd60e51b815260206004820152601660248201527514dc1858d955185e1a4e881e995c9bc8185b5bdd5b9d60521b6044820152606401610a2e565b600061163160195490565b6011549091506116418383612ccf565b111561168f5760405162461bcd60e51b815260206004820152601e60248201527f5370616365546178693a204d617820737570706c7920657863656564656400006044820152606401610a2e565b348260185461169e9190612e5b565b11156116bc5760405162461bcd60e51b8152600401610a2e90612e7a565b60005b82811015610bf2576116cf612004565b806116d981612ebb565b9150506116bf565b6116eb3383611cd8565b6117075760405162461bcd60e51b8152600401610a2e90612d32565b61171384848484612158565b50505050565b6006546001600160a01b031633146117435760405162461bcd60e51b8152600401610a2e90612d83565b6015805460ff19811660ff90911615179055565b60148054610a6090612c38565b6000818152600260205260409020546060906001600160a01b03166117e35760405162461bcd60e51b815260206004820152602f60248201527f4552433732314d657461646174613a2055524920717565727920666f72206e6f60448201526e3732bc34b9ba32b73a103a37b5b2b760891b6064820152608401610a2e565b601554610100900460ff1661188457601380546117ff90612c38565b80601f016020809104026020016040519081016040528092919081815260200182805461182b90612c38565b80156118785780601f1061184d57610100808354040283529160200191611878565b820191906000526020600020905b81548152906001019060200180831161185b57829003601f168201915b50505050509050919050565b600061188e61218b565b905060008151116118ae57604051806020016040528060008152506118dc565b806118b88461219a565b60146040516020016118cc93929190612ed6565b6040516020818303038152906040525b9392505050565b6006546001600160a01b0316331461190d5760405162461bcd60e51b8152600401610a2e90612d83565b8051610fef9060149060208401906127f3565b6006546001600160a01b0316331461194a5760405162461bcd60e51b8152600401610a2e90612d83565b6015805463ff00000019811663010000009182900460ff1615909102179055565b60105460405163c455279160e01b81526001600160a01b03848116600483015260009281169190841690829063c45527919060240160206040518083038186803b1580156119b857600080fd5b505afa1580156119cc573d6000803e3d6000fd5b505050506040513d601f19601f820116820180604052508101906119f09190612f9a565b6001600160a01b03161415611a09576001915050610921565b6001600160a01b0380851660009081526005602090815260408083209387168352929052205460ff165b949350505050565b6006546001600160a01b03163314611a655760405162461bcd60e51b8152600401610a2e90612d83565b8051610fef9060139060208401906127f3565b6006546001600160a01b03163314611aa25760405162461bcd60e51b8152600401610a2e90612d83565b6001600160a01b038116611b075760405162461bcd60e51b815260206004820152602660248201527f4f776e61626c653a206e6577206f776e657220697320746865207a65726f206160448201526564647265737360d01b6064820152608401610a2e565b611b1081611f9c565b50565b600081815260046020526040902080546001600160a01b0319166001600160a01b0384169081179091558190611b4882610ff3565b6001600160a01b03167f8c5be1e5ebec7d5bd14f71427d1e84f3dd0314c0f7b2291e5b200ac8c7c3b92560405160405180910390a45050565b6008546001600160a01b0384166000908152600a602052604081205490918391611bab9086612e5b565b611bb59190612fcd565b611a339190612fe1565b80471015611c0f5760405162461bcd60e51b815260206004820152601d60248201527f416464726573733a20696e73756666696369656e742062616c616e63650000006044820152606401610a2e565b6000826001600160a01b03168260405160006040518083038185875af1925050503d8060008114611c5c576040519150601f19603f3d011682016040523d82523d6000602084013e611c61565b606091505b5050905080610bf25760405162461bcd60e51b815260206004820152603a60248201527f416464726573733a20756e61626c6520746f2073656e642076616c75652c207260448201527f6563697069656e74206d617920686176652072657665727465640000000000006064820152608401610a2e565b6000818152600260205260408120546001600160a01b0316611d515760405162461bcd60e51b815260206004820152602c60248201527f4552433732313a206f70657261746f7220717565727920666f72206e6f6e657860448201526b34b9ba32b73a103a37b5b2b760a11b6064820152608401610a2e565b6000611d5c83610ff3565b9050806001600160a01b0316846001600160a01b03161480611d835750611d83818561196b565b80611a335750836001600160a01b0316611d9c846109b9565b6001600160a01b031614949350505050565b826001600160a01b0316611dc182610ff3565b6001600160a01b031614611e255760405162461bcd60e51b815260206004820152602560248201527f4552433732313a207472616e736665722066726f6d20696e636f72726563742060448201526437bbb732b960d91b6064820152608401610a2e565b6001600160a01b038216611e875760405162461bcd60e51b8152602060048201526024808201527f4552433732313a207472616e7366657220746f20746865207a65726f206164646044820152637265737360e01b6064820152608401610a2e565b611e92600082611b13565b6001600160a01b0383166000908152600360205260408120805460019290611ebb908490612fe1565b90915550506001600160a01b0382166000908152600360205260408120805460019290611ee9908490612ccf565b909155505060008181526002602052604080822080546001600160a01b0319166001600160a01b0386811691821790925591518493918716917fddf252ad1be2c89b69c2b068fc378daa952ba7f163c4a11628f55a4df523b3ef91a4505050565b604080516001600160a01b038416602482015260448082018490528251808303909101815260649091019091526020810180516001600160e01b031663a9059cbb60e01b179052610bf2908490612298565b600680546001600160a01b038381166001600160a01b0319831681179093556040519116919082907f8be0079c531659141344cd1fd0a4f28419497f9722a3daafe3b4186f6b6457e090600090a35050565b600082611ffb858461236a565b14949350505050565b600260075414156120575760405162461bcd60e51b815260206004820152601f60248201527f5265656e7472616e637947756172643a207265656e7472616e742063616c6c006044820152606401610a2e565b600260075561206a601980546001019055565b600061207560195490565b905061208133826123de565b506001600755565b816001600160a01b0316836001600160a01b031614156120eb5760405162461bcd60e51b815260206004820152601960248201527f4552433732313a20617070726f766520746f2063616c6c6572000000000000006044820152606401610a2e565b6001600160a01b03838116600081815260056020908152604080832094871680845294825291829020805460ff191686151590811790915591519182527f17307eab39ab6107e8899845ad3d59bd9653f200f220920489ca2b5937696c31910160405180910390a3505050565b612163848484611dae565b61216f848484846123f8565b6117135760405162461bcd60e51b8152600401610a2e90612ff8565b60606012805461093690612c38565b6060816121be5750506040805180820190915260018152600360fc1b602082015290565b8160005b81156121e857806121d281612ebb565b91506121e19050600a83612fcd565b91506121c2565b60008167ffffffffffffffff81111561220357612203612a1b565b6040519080825280601f01601f19166020018201604052801561222d576020820181803683370190505b5090505b8415611a3357612242600183612fe1565b915061224f600a8661304a565b61225a906030612ccf565b60f81b81838151811061226f5761226f612dd1565b60200101906001600160f81b031916908160001a905350612291600a86612fcd565b9450612231565b60006122ed826040518060400160405280602081526020017f5361666545524332303a206c6f772d6c6576656c2063616c6c206661696c6564815250856001600160a01b03166125059092919063ffffffff16565b805190915015610bf2578080602001905181019061230b919061305e565b610bf25760405162461bcd60e51b815260206004820152602a60248201527f5361666545524332303a204552433230206f7065726174696f6e20646964206e6044820152691bdd081cdd58d8d9595960b21b6064820152608401610a2e565b600081815b84518110156123d657600085828151811061238c5761238c612dd1565b602002602001015190508083116123b257600083815260208290526040902092506123c3565b600081815260208490526040902092505b50806123ce81612ebb565b91505061236f565b509392505050565b610fef828260405180602001604052806000815250612514565b60006001600160a01b0384163b156124fa57604051630a85bd0160e11b81526001600160a01b0385169063150b7a029061243c90339089908890889060040161307b565b602060405180830381600087803b15801561245657600080fd5b505af1925050508015612486575060408051601f3d908101601f19168201909252612483918101906130b8565b60015b6124e0573d8080156124b4576040519150601f19603f3d011682016040523d82523d6000602084013e6124b9565b606091505b5080516124d85760405162461bcd60e51b8152600401610a2e90612ff8565b805181602001fd5b6001600160e01b031916630a85bd0160e11b149050611a33565b506001949350505050565b6060611a338484600085612547565b61251e8383612678565b61252b60008484846123f8565b610bf25760405162461bcd60e51b8152600401610a2e90612ff8565b6060824710156125a85760405162461bcd60e51b815260206004820152602660248201527f416464726573733a20696e73756666696369656e742062616c616e636520666f6044820152651c8818d85b1b60d21b6064820152608401610a2e565b6001600160a01b0385163b6125ff5760405162461bcd60e51b815260206004820152601d60248201527f416464726573733a2063616c6c20746f206e6f6e2d636f6e74726163740000006044820152606401610a2e565b600080866001600160a01b0316858760405161261b91906130d5565b60006040518083038185875af1925050503d8060008114612658576040519150601f19603f3d011682016040523d82523d6000602084013e61265d565b606091505b509150915061266d8282866127ba565b979650505050505050565b6001600160a01b0382166126ce5760405162461bcd60e51b815260206004820181905260248201527f4552433732313a206d696e7420746f20746865207a65726f20616464726573736044820152606401610a2e565b6000818152600260205260409020546001600160a01b0316156127335760405162461bcd60e51b815260206004820152601c60248201527f4552433732313a20746f6b656e20616c7265616479206d696e746564000000006044820152606401610a2e565b6001600160a01b038216600090815260036020526040812080546001929061275c908490612ccf565b909155505060008181526002602052604080822080546001600160a01b0319166001600160a01b03861690811790915590518392907fddf252ad1be2c89b69c2b068fc378daa952ba7f163c4a11628f55a4df523b3ef908290a45050565b606083156127c95750816118dc565b8251156127d95782518084602001fd5b8160405162461bcd60e51b8152600401610a2e9190612917565b8280546127ff90612c38565b90600052602060002090601f0160209004810192826128215760008555612867565b82601f1061283a57805160ff1916838001178555612867565b82800160010185558215612867579182015b8281111561286757825182559160200191906001019061284c565b50612873929150612877565b5090565b5b808211156128735760008155600101612878565b6001600160e01b031981168114611b1057600080fd5b6000602082840312156128b457600080fd5b81356118dc8161288c565b60005b838110156128da5781810151838201526020016128c2565b838111156117135750506000910152565b600081518084526129038160208601602086016128bf565b601f01601f19169290920160200192915050565b6020815260006118dc60208301846128eb565b60006020828403121561293c57600080fd5b5035919050565b6001600160a01b0381168114611b1057600080fd5b6000806040838503121561296b57600080fd5b823561297681612943565b946020939093013593505050565b60006020828403121561299657600080fd5b81356118dc81612943565b6000806000606084860312156129b657600080fd5b83356129c181612943565b925060208401356129d181612943565b929592945050506040919091013590565b600080604083850312156129f557600080fd5b8235612a0081612943565b91506020830135612a1081612943565b809150509250929050565b634e487b7160e01b600052604160045260246000fd5b600067ffffffffffffffff80841115612a4c57612a4c612a1b565b604051601f8501601f19908116603f01168101908282118183101715612a7457612a74612a1b565b81604052809350858152868686011115612a8d57600080fd5b858560208301376000602087830101525050509392505050565b600060208284031215612ab957600080fd5b813567ffffffffffffffff811115612ad057600080fd5b8201601f81018413612ae157600080fd5b611a3384823560208401612a31565b60008060008060608587031215612b0657600080fd5b8435612b1181612943565b935060208501359250604085013567ffffffffffffffff80821115612b3557600080fd5b818701915087601f830112612b4957600080fd5b813581811115612b5857600080fd5b8860208260051b8501011115612b6d57600080fd5b95989497505060200194505050565b8015158114611b1057600080fd5b60008060408385031215612b9d57600080fd5b8235612ba881612943565b91506020830135612a1081612b7c565b60008060008060808587031215612bce57600080fd5b8435612bd981612943565b93506020850135612be981612943565b925060408501359150606085013567ffffffffffffffff811115612c0c57600080fd5b8501601f81018713612c1d57600080fd5b612c2c87823560208401612a31565b91505092959194509250565b600181811c90821680612c4c57607f821691505b60208210811415612c6d57634e487b7160e01b600052602260045260246000fd5b50919050565b60208082526026908201527f5061796d656e7453706c69747465723a206163636f756e7420686173206e6f2060408201526573686172657360d01b606082015260800190565b634e487b7160e01b600052601160045260246000fd5b60008219821115612ce257612ce2612cb9565b500190565b6020808252602b908201527f5061796d656e7453706c69747465723a206163636f756e74206973206e6f742060408201526a191d59481c185e5b595b9d60aa1b606082015260800190565b60208082526031908201527f4552433732313a207472616e736665722063616c6c6572206973206e6f74206f6040820152701ddb995c881b9bdc88185c1c1c9bdd9959607a1b606082015260800190565b6020808252818101527f4f776e61626c653a2063616c6c6572206973206e6f7420746865206f776e6572604082015260600190565b600060208284031215612dca57600080fd5b5051919050565b634e487b7160e01b600052603260045260246000fd5b6020808252601290820152712737ba1030b63637bbb2b21037b934b3b4b760711b604082015260600190565b60208082526028908201527f5370616365546178693a20596f752063616e2774206d696e7420736f206d75636040820152676820746f6b656e7360c01b606082015260800190565b6000816000190483118215151615612e7557612e75612cb9565b500290565b60208082526021908201527f5370616365546178693a204e6f7420656e6f756768206574686572732073656e6040820152601d60fa1b606082015260800190565b6000600019821415612ecf57612ecf612cb9565b5060010190565b600084516020612ee98285838a016128bf565b855191840191612efc8184848a016128bf565b8554920191600090600181811c9080831680612f1957607f831692505b858310811415612f3757634e487b7160e01b85526022600452602485fd5b808015612f4b5760018114612f5c57612f89565b60ff19851688528388019550612f89565b60008b81526020902060005b85811015612f815781548a820152908401908801612f68565b505083880195505b50939b9a5050505050505050505050565b600060208284031215612fac57600080fd5b81516118dc81612943565b634e487b7160e01b600052601260045260246000fd5b600082612fdc57612fdc612fb7565b500490565b600082821015612ff357612ff3612cb9565b500390565b60208082526032908201527f4552433732313a207472616e7366657220746f206e6f6e20455243373231526560408201527131b2b4bb32b91034b6b83632b6b2b73a32b960711b606082015260800190565b60008261305957613059612fb7565b500690565b60006020828403121561307057600080fd5b81516118dc81612b7c565b6001600160a01b03858116825284166020820152604081018390526080606082018190526000906130ae908301846128eb565b9695505050505050565b6000602082840312156130ca57600080fd5b81516118dc8161288c565b600082516130e78184602087016128bf565b919091019291505056fea2646970667358221220bac6974cde8f7b14f21ce6791868f0ec4bbaf49bd51e4172c869d460fd48838564736f6c63430008090033697066733a2f2f516d54636b4c445633537342576477386f366e646a6d6748794e66484e74787165763143665254623739474a7a332f68696464656e2e6a736f6e",
  "linkReferences": {},
  "deployedLinkReferences": {}
}